:020000040800F2
:10000000380C01203D40020815E501082BE50108E8
:100010003BE5010851E5010861E501080000000029
:100020000000000000000000000000006DE5010875
:1000300079E50108000000007BE501087DE5010885
:10004000FD42020801430208054302080943020871
:100050000D43020811430208154302081943020820
:100060001D430208214302082543020829430208D0
:100070002D43020831430208354302083943020880
:100080003D43020841430208454302084943020830
:100090004D430208514302085543020859430208E0
:1000A0005D43020861430208654302086943020890
:1000B0006D43020871430208754302087943020840
:1000C0007D430208814302088543020889430208F0
:1000D0008D4302087DE80108914302081DE90108EB
:1000E00095430208994302089D430208A143020870
:1000F000A5430208A9430208AD430208B143020820
:10010000B5430208B9430208BD43020891EB010858
:10011000C1430208C5430208C9430208CD4302088F
:10012000D1430208D5430208D9430208DD4302083F
:10013000E143020893EB01089DEB0108E543020847
:10014000E9430208ED430208F1430208A7EB010866
:10015000F5430208F9430208FD430208014402087E
:1001600005440208094402080D440208114402082B
:1001700015440208194402081D440208000000004A
:100180002144020825440208294402082D4402089B
:100190003144020835440208394402083D4402084B
:1001A00041440208454402084944020802005178CB
:1001B000107850EA012080B270470100CA78887830
:1001C00050EA02204A7852EA0022087850EA0220D7
:1001D000704730B40200D47900252D0245EA146539
:1001E00024029079002104430D432D0245EA146551
:1001F00024025079002104430D432D0245EA146581
:1002000024021079002104430D432D0245EA1465B0
:100210002402D078002104430D432D0245EA1465E1
:1002200024029078002104430D432D0245EA146511
:1002300024025078002104430D432D0245EA146541
:100240002402107800212043294330BC70470170FC
:10025000401C89B2090A0170401C70470170401CA3
:10026000090A0170401C090A0170401C090A01704A
:10027000401C70470270401C120A42EA03621B0ACB
:100280000270401C120A42EA03621B0A0270401C00
:10029000120A42EA03621B0A0270401C120A42EA76
:1002A00003621B0A0270401C120A42EA03621B0A24
:1002B0000270401C120A42EA03621B0A0270401CD0
:1002C000120A42EA03621B0A0270401C704730B4F3
:1002D00005000B00002A06D01C782C705B1C6D1CDE
:1002E000521E002AF8D130BC7047030019705B1C05
:1002F000521E002AFAD17047F0B407003C000D00EE
:10030000002026782B78F61A30006D1C641C521ED3
:10031000002A01D00028F4D0F0BC70470278002AEF
:1003200004D002788A4201D0401CF7E70078704779
:1003300070B4020000231C00022C1AD2B34D20011D
:100340002858002811D020012E58106886420ED15E
:100350002001284446689068864208D1200128443C
:100360008568106B854202D103E001200300641C04
:10037000E2E7022C08D1002B01D1022901D1002093
:1003800000E01220C0B20CE0002906D19F482101F4
:1003900008448089B0F5807F01D1102000E0002062
:1003A000C0B270BC70470021022906D2974A0801EA
:1003B0001058002801D0491CF6E7022901D100207D
:1003C00000E00120704730B402000023022B13D25A
:1003D0008E481C0105591468A5420BD11C01044428
:1003E00065689468A54205D11C0120448468106B9F
:1003F000844201D05B1CE9E7022B1ED100200300E0
:10040000022B06D2814C18012058002801D05B1C19
:10041000F6E7022B01D1002029E07C4815681C0179
:10042000055194681D0105446C60146B1D01054461
:10043000AC6000241D0128448481002907D0734842
:100440001C0120448089002801D000200FE00029F1
:1004500002D04FF4807004E06C4C18012044808975
:10046000401C6A4D1C012C44A0815B1C180030BC50
:10047000704710B40200521E022A1CD263481301B6
:1004800003449B8919000B009BB2B3F5807F01D117
:10049000002319000B009BB2002B00D0491E130152
:1004A000034499810B009BB2002B02D1002413015D
:1004B000C450002000E00220C0B210BC704710B44D
:1004C0000021022909D2514A0B01D358834202D19B
:1004D00000240B01D450491CF3E710BC7047F8B559
:1004E00004000027E078002823D0A06B050001233A
:1004F0002A0014F13C01607803F004FA002802D0CD
:100500000120070015E00020E070E16A691A606AC6
:1005100081420ED2A0780600022E0AD3606A4519E5
:1005200001232A0014F13C01607803F0EBF9761EF8
:10053000F2E73800C0B2F2BD70B504000D0000262D
:10054000A06B854216D02000FFF7C9FF06003000DF
:10055000C0B200280ED101232A0014F13C016078BA
:1005600003F0B6F9002804D05FF0FF300500012049
:100570000600A5633000C0B270BD38B5040020008D
:10058000FFF7ADFF05002800C0B200283AD120785F
:1005900003282ED1207901282BD1A289002114F122
:1005A0003C00FFF7A2FE4AF6552104F23A20FFF77D
:1005B0004EFE174914F13C00FFF750FE154914F5A3
:1005C0000870FFF74BFEE16914F50970FFF746FE6E
:1005D000A16914F50A70FFF741FEA06A401CA063F0
:1005E0000123A26B14F13C01607803F08BF9002029
:1005F000207100220021607803F09EF9002801D0CC
:10060000012005002800C0B232BD0000B4F900206E
:1006100052526141727241610200891E106A801E4D
:10062000814201D3002004E05389506B03FB010198
:10063000080070472DE9F84F80460F00D8F80050A9
:10064000022F02D3286A874201D30126D5E05FF04A
:10065000FF362878012807D0C0F0CD80032858D075
:100660003CD3042871D0C6E0380010EB500081461E
:10067000E96AA889B9FBF0F041182800FFF75CFF90
:10068000002840F0BA804A4619F10109A889B2FB56
:10069000F0F100FB112205EB020090F83C00040091
:1006A000E96AA889B9FBF0F041182800FFF744FF78
:1006B000002840F0A280A989B9FBF1F001FB10915C
:1006C00005EB010090F83C0054EA0024F80702D53D
:1006D0002600360901E02605360D8EE0E96AAA8972
:1006E000022092FBF0F0B7FBF0F041182800FFF772
:1006F00023FF002840F081807A00A889B2FBF0F146
:1007000000FB112205EB02003C30FFF74FFD060015
:1007100073E0E96AAA89042092FBF0F0B7FBF0F0DD
:1007200041182800FFF708FF002866D1BA00A88901
:10073000B2FBF0F100FB112205EB02003C30FFF7A9
:100740003CFD20F07040060057E0D8E90401002984
:1007500001D100284FD0D8F808A0B7EB0A0AD8E991
:100760000401401E71F10001AA89002303F0FCF886
:100770006989B0FBF1FB98F80700022808D1D3453E
:1007800006D3DA4502D17FF0004600E07E1C34E05B
:1007900098F80700032806D1D8F81800824502D23D
:1007A000781C060029E098F80700022823D0D8F822
:1007B0001C00002803D07FF0004006001AE0E96A20
:1007C000AA89042092FBF0F0B7FBF0F04118280052
:1007D000FFF7B2FE002810D1BA00A889B2FBF0F1F1
:1007E00000FB112205EB02003C30FFF7E6FC20F095
:1007F0000040060001E0012006003000BDE8F28F55
:100800002DE9F84381460C0015005FF00208022C28
:10081000C0F0BF80D9F82000844280F0BA8099F8F7
:100820000000012807D0C0F0B48003287CD057D343
:10083000042879D0ADE0200010EB50000600D9F874
:100840002C10B9F80C00B6FBF0F041184846FFF741
:1008500073FE80464046C0B2002840F09A803200C5
:10086000761CB9F80C00B2FBF0F100FB112209EB89
:1008700002003C300700E00705D5387810F00F0083
:1008800050EA051000E028003870012089F80300C4
:10089000D9F82C10B9F80C00B6FBF0F04118484616
:1008A000FFF74AFE80464046C0B2002871D1B9F831
:1008B0000C10B6FBF1F001FB106109EB01003C30BC
:1008C0000700E00702D52900090904E02800000A12
:1008D000397860F303013970012089F8030058E08A
:1008E000D9F82C10B9F80C20022092FBF0F0B4FBE0
:1008F000F0F041184846FFF71FFE80464046C0B260
:10090000002846D16300B9F80C00290089B2B3FB76
:10091000F0F200FB123309EB03003C30FFF797FCC9
:10092000012089F8030034E0D9F82C10B9F80C0044
:10093000042290FBF2F0B4FBF0F041184846FFF7B8
:10094000FBFD80464046C0B2002822D199F8000045
:1009500004280ED0A200B9F80C00B2FBF0F100FBA5
:10096000112209EB02003C30FFF727FC000F60F377
:100970001F75A300B9F80C002900B3FBF0F200FBCF
:10098000123309EB03003C30FFF768FC012089F8C3
:1009900003004046C0B2BDE8F2832DE9F84F0400E1
:1009A0001500891E00910099206A801E814201D3A2
:1009B00000200090DDF800B0D9465FF0000A616BBE
:1009C0005A46D208A089B2FBF0F041182000FFF788
:1009D000B3FD002802D05FF0FF303FE05A46D20856
:1009E000A089B2FBF0F100FB1122904601211BF01F
:1009F000070081400E0004EB080090F83C003040F6
:100A0000070076001BF1010B206A801E834505D389
:100A10000020834600200600A08980463800C0B22E
:100A2000002807D11AF1010AAA4506D119F10209D5
:100A3000484613E0D946002082460098834501D1FC
:100A400000200BE03000C0B20028D4D10120060005
:100A500018F10108A0898045CDD3B0E7BDE8F28F39
:100A60002DE9F0470500894614001E00B9F102097E
:100A7000686B4A46D208A989B2FBF1F818EB000866
:100A80004F46FF08A989B7FBF1F001FB10775FF033
:100A9000010A19F007001AFA00FA41462800FFF788
:100AA0004BFD18F10108C0B2002801D001202EE052
:100AB00005EB070090F83C0010EA0A0F01D0012076
:100AC00000E00020C0B2864201D102201FE005EB09
:100AD000070090F83C109AEA010105EB070080F846
:100AE0003C100120E870641E002C01D100200EE0B3
:100AF0005FEA4A0A5046C0B20028D9D10120824696
:100B00007F1CA8898742D3D300200700C5E7BDE832
:100B1000F087F8B50500E879032817D1A868070021
:100B2000A8690400002C0FD07A1C39002868FFF750
:100B300067FE06003000C0B2002802D03000C0B20C
:100B400005E07F1C641EEDE70020E8710020F2BD87
:100B5000F8B504000D001600E069002819D0E0691E
:100B6000022803D3E269AA1A921C00E03200E1696C
:100B7000691A491C2068FFF743FE07003800C0B21D
:100B8000002802D03800C0B204E0E069401EE061F5
:100B9000E2E70020F2BD2DE9F84F83460E00150074
:100BA0000027DBF80080B146B246022E03D3D8F806
:100BB0002000864201D3022088E0002D15D098F84D
:100BC0000000042803D19BF8070002280DD05FF035
:100BD000FF3229004046FFF713FE07003800C0B27D
:100BE000002802D03800C0B270E031005846FFF74C
:100BF00021FD0400002C4CD0012C01D1022065E025
:100C000014F1010F01D1012060E098F800000428E0
:100C10000CD0002231004046FFF7F2FD07003800FB
:100C2000C0B2002802D03800C0B24FE0D8F81C1083
:100C3000D8F82000801E81420AD2D8F81C00401C3F
:100C4000C8F81C0098F8040050F0010088F804006F
:100C50001AF10100A04201D1A24615E098F8000067
:100C600004280FD10023BAEB0902521C4946404622
:100C7000FFF7F6FE07003800C0B2002802D03800A7
:100C8000C0B223E0A246D1462600D8F82000864212
:100C9000ABD398F80000042817D1002D03D1002011
:100CA0008BF8070011E09BF8070003280DD1DBF853
:100CB0000800854209D3DBF80810DBF8180041185A
:100CC000A94202D302208BF807000020BDE8F28F72
:100CD0002DE9F04782460C00DAF80080002C0AD19A
:100CE000D8F81860002E03D0D8F82000864217D319
:100CF0000120060014E021005046FFF79BFC050090
:100D0000022D01D20120C1E015F1010F01D128000F
:100D1000BCE0D8F82000854201D22800B6E02600C9
:100D200098F8000004285DD1012231004046FFF709
:100D300034FE0700002F02D017F1010F01D1380057
:100D4000A4E00123012239004046FFF789FE8146D5
:100D50004846C0B2022801D1012097E04846C0B2FF
:100D6000012802D15FF0FF3090E0002C03D1022077
:100D70008AF807000EE09AF8070002280AD1701CD2
:100D8000874207D0DAF80800301ACAF818000320A2
:100D90008AF807009AF80700022855D0601C87429D
:100DA0000BD1DAF81C00002803D0DAF81C00401C34
:100DB00000E00220CAF81C0046E0DAF81C00002817
:100DC00002D10120CAF81C003A0021005046FFF76A
:100DD000BFFE81464846C0B2002835D10120CAF87E
:100DE0001C0031E037007F1CD8F82000874205D373
:100DF00002200700BE4201D2002047E039005046E1
:100E0000FFF718FC0500002D0BD15FF0FF32390011
:100E10004046FFF7F5FC81464846C0B2002813D192
:100E20000AE0012D02D015F1010F01D128002DE0BB
:100E3000B742D8D1002029E0002C05D03A0021008B
:100E40004046FFF7DDFC81464846C0B2002814D179
:100E5000C8F81870D8F82010891ED8F81C008142F4
:100E600004D3D8F81C00401EC8F81C0098F80400F1
:100E700050F0010088F8040007E04846C0B201289D
:100E800002D15FF0FF3700E001273800BDE8F087AE
:100E90002DE9F043804616001F00D8F80050D8F81E
:100EA000500010F1040930003900AA89002302F033
:100EB0005BFD6A89002302F057FD0200D9F80000AB
:100EC000040019F10401002C01D1002009E0A24224
:100ED00003D208688218100003E0121B11F1040904
:100EE000ECE7BDE8F0832DE9F04180460D00D8F82D
:100EF00000703878042802D15FF0805001E05FF480
:100F00000010854202D215F01F0F01D0022054E0DC
:100F1000C8F83050D8F80840002C07D1387803289A
:100F200004DB386B0400002088F80700002C0AD18D
:100F3000290049093889814201D302203DE0386BFC
:100F4000C8F838001EE07989B88941430E00B542DF
:100F500012D321004046FFF76DFB040014F1010F8E
:100F600001D1012029E0022C02D3386A844201D346
:100F7000022022E0AD1BEAE721003800FFF74CFB1E
:100F8000C8F83800C8F83440D8F83800002801D133
:100F9000022012E0D8F83810B889B5FBF0F04118FB
:100FA000C8F83810B989B5FBF1F001FB105107EB17
:100FB00001003C30C8F83C000020BDE8F0812DE97C
:100FC000F84306000C003768D6F8308018F1200886
:100FD000B06B002809D03878042802D15FF0805027
:100FE00001E05FF40010804501D3042085E0B8895A
:100FF000B8FBF0F100FB1180002872D1B06B401CEF
:10100000B063706B002808D1414649093889814294
:1010100067D30020B06304206FE0B889B8FBF0F11B
:101020007889401E01425CD1716B3000FFF702FBF2
:101030000500022D01D202205FE015F1010F01D160
:1010400001205AE0386A854245D3002C03D10020A4
:10105000B063042051E0716B3000FFF739FE0500EA
:10106000002D01D1072048E0012D01D1022044E0EC
:1010700015F1010F01D101203FE0F07950F004009B
:10108000F0713800FFF72BFA002801D0012034E07E
:10109000BA89002117F13C00FFF727F900208146AB
:1010A00029003800FFF7B8FAB863788981450ED275
:1010B0000120F8703800FFF712FA002801D0012053
:1010C0001BE019F10109B86B401CB863EDE7B86B80
:1010D000B0EB0900B863756329003800FFF79CFA8C
:1010E000B063C6F83080B989B8FBF1F001FB10811C
:1010F00007EB01003C30F0630020BDE8F2832DE9EE
:10110000F04104000D00266800212000FFF7EBFEEF
:1011100007003800C0B2002834D100208046A16BFF
:101120003000FFF709FA07003800C0B2002829D1C3
:101130003078042809D1E06B0078C0F3C01010F0BB
:10114000010090F00100C0B20AE0E06B0078E528F1
:1011500003D0E06B0078002801D1012000E00020DE
:10116000002804D018F10108A84502D10AE00020A7
:10117000804601212000FFF722FF07003800C0B29F
:101180000028CCD03800C0B2042801D107200700C5
:101190003800C0B2BDE8F08170B504000D0015F153
:1011A0001A00FFF703F806002078032806D115F18E
:1011B0001400FEF7FBFF56EA00400600300070BD49
:1011C00070B504000D001600310089B215F11A0047
:1011D000FFF73DF82078032806D13100090C89B2C9
:1011E00015F11400FFF733F870BD2DE9F047814683
:1011F0000C0014F11A00FEF7D9FF002801D00020DE
:1012000045E0207810F03F00401E0D2606FB00F65A
:1012100001275FF00008B8F10D0F2AD2644810F8DA
:1012200008002044FEF7C2FF0500380080B2002805
:1012300014D0FF2E0ED2280080B202F0DDFC8246D0
:1012400039F8160002F0D8FC761C1FFA8AFA80B230
:10125000824501D000201AE02F0007E029004FF658
:10126000FF7089B2814201D0002010E018F101081E
:10127000D1E72078400609D5380080B2002805D093
:1012800039F81600002801D0002000E00120BDE858
:10129000F0872DE9F84304000D0015F11A00FEF760
:1012A00085FF002801D000203AE0287830F0400087
:1012B000401E5FF00D0909FB00F901275FF00008EF
:1012C000B8F10D0F20D23A4810F808002844FEF774
:1012D0006DFF0600380080B200280AD0B9F1FF0F78
:1012E00001D300201CE0370024F8197019F101091E
:1012F00007E031004FF6FF7089B2814201D0002033
:101300000EE018F10108DBE72878400607D5B9F1AF
:10131000FF0F01D3002003E0002024F81900012072
:10132000BDE8F2832DE9F84F82460C0015001E003F
:1013300066730F20E07200202073002114F11A0060
:10134000FEF785FF2800C0B2401E0D2707FB00F7FF
:101350005FF00008C1461FFA89F94FF6FF7B41464E
:10136000584689B2814203D03AF8170080467F1C64
:10137000414689B20E4810F809002044FEF767FF85
:10138000404680B2002800D1D84619F10109B9F1D0
:101390000D0FE2D3404680B2584503D03AF817000B
:1013A000002801D155F040052570BDE8F18F0000FF
:1013B0005C3E02082DE9FE4F83460D0016001C001E
:1013C0000B2229005846FEF782FF062C22D3A246A4
:1013D000308800281DD030888146B61C0020804609
:1013E000B8F1100FF4D25046CA461FFA8AFA1AF022
:1013F000010A1AEB400A1FFA89F95FEA59095FEA04
:10140000CA3003D58AF4883A9AF0210A18F1010803
:10141000E6E75446072014F00F0130310F00390081
:10142000C9B23A2900DBFF1D69460F54401E24094A
:10143000002CF0D17E220A540022824205D21BF8F1
:101440000230202B01D0521CF7E794461CF1010218
:10145000082802D20B5C401C00E020230BF80C3063
:10146000082AF2D3BDE8F78F030000200B21020009
:10147000D2B2520812EBC012187880185B1C491EB9
:101480000029F4D1C0B2704710B401004878401C64
:101490004201002003009BB293420CD2022B01D1E7
:1014A0005B1C06E00400A4B2640814EBC034C85C02
:1014B00020185B1CF0E780B210BC704770B50500C7
:1014C00000242988AD1C0E0089B2002915D03000F7
:1014D00080B202F091FB210089B2490811EBC431BE
:1014E00000F0FF0252181400A4B2640814EBC234D6
:1014F000010089B214EB1124E3E7200080B270BD33
:101500002DE9F84381460D00002440275FF00008D4
:1015100099F8230080451DD217F01F0F00D1BF1C82
:1015200009EB0700FEF742FE002180B202F034FB17
:101530000600300080B2002801D0FF2C02D300202A
:10154000040007E005EB04008676641CBF1C18F15C
:101550000108DDE7002C04D13F2105EB0400817672
:10156000641C002105EB040081760020687399F863
:1015700004002873287BC00602D50020002103E068
:1015800019F13800FEF725FEC5E9000119F10C003C
:10159000FEF70CFE688119F10E00FEF707FE2881A8
:1015A000BDE8F1832DE9F047040020684569A16B8F
:1015B0002068FEF7C1FF07003800C0B2002802D043
:1015C0003800C0B281E0E06B0078852801D00220AD
:1015D0007BE02022E16B2800FEF779FE6878401C52
:1015E0004601602E03D340F26128464501D3022014
:1015F0006BE000212000FFF7E2FC81464846C0B2C4
:10160000002802D04846C0B25FE0A16B2068FEF718
:1016100093FF07003800C0B2002802D03800C0B2E3
:1016200053E0E06B0078C02801D002204DE020227A
:10163000E16B15F12000FEF74AFE95F823102C31DE
:101640000F20B1FBF0F0B6EB401F01D202203CE0CE
:101650005FF0400900212000FFF7B1FC82465046B0
:10166000C0B2002802D05046C0B22EE0A16B206864
:10167000FEF762FF07003800C0B2002802D0380031
:10168000C0B222E0E06B0078C12801D002201CE04B
:10169000B9F5187F05D22022E16B05EB0900FEF7B2
:1016A00016FE19F12009B145D4D3C1450CD228004A
:1016B000FFF7EAFE8046A81CFEF778FD1FFA88F8BF
:1016C000804501D0022000E00020BDE8F08770B521
:1016D00004000D0028682060286AA060686AE07134
:1016E000686A000A00020021C4E90401A86AE064F3
:1016F000E16C2000FFF7F7FB06003000C0B20028C5
:1017000003D12000FFF74EFF06003000C0B270BDCD
:10171000F8B50500286846693000FFF7B5FE0100FE
:1017200089B2B01CFEF793FD7478641CE96C280044
:10173000FFF7D9FB07003800C0B200281AD1A96B07
:101740002868FEF7F9FE07003800C0B2002811D162
:1017500020223100E86BFEF7BAFD01212868C17034
:10176000641E002C06D0203600212800FFF727FC3D
:101770000700E0E73800C0B2002803D03800C0B24C
:10178000012800D100E002273800C0B2F2BD2DE9E7
:10179000F84381460C00402200214846FEF7A5FD93
:1017A000852089F80000C02089F820000025012646
:1017B00001275FF04008C12009F8080018F101086E
:1017C000002009F8080018F10108380080B200284C
:1017D00008D02800C0B234F81070380080B2002859
:1017E00000D06D1C390089B209EB0800FEF72FFD0F
:1017F00018F1020818F01F0FE7D1761C2800C0B2BC
:1018000034F810000028D6D189F8235089F80160F7
:101810002000FFF753FE010089B219F12400FEF702
:1018200016FDBDE8F1832DE9F84F05000E000427F1
:10183000D5F800804FF0FF09CA468DF80090A86BDC
:10184000002800F08A80A96B4046FEF775FE07006D
:101850003800C0B2002840F08080E86B00780400B7
:101860002000C0B2002802D10420070075E098F8DB
:101870000000042814D12000C0B2852863D1286B51
:10188000E8642800FFF78EFE07003800C0B2002889
:1018900005D1D8F81400007910F03F00A8715CE081
:1018A000E86BC07A10F03F00834685F806B0200050
:1018B000C0B2E5280FD02000C0B22E280BD0584669
:1018C000C0B230F02000082801D1012000E0002043
:1018D000C0B2B04201D0CA4635E05846C0B20F2867
:1018E00022D1600608D5E86B407B8DF8000014F02B
:1018F000BF04A246286BE86421005046C9B2C0B2BA
:1019000081420FD19DF80000E96B497B884209D1E3
:10191000E96BD8F81000FFF7BCFC002802D0BAF140
:10192000010A10E0CA460EE05046C0B2002806D1B7
:101930009DF80090E86BFFF797FD814502D05FF0BE
:10194000FF30E86409E000212800FFF738FB0700BA
:101950003800C0B200283FF472AF3800C0B200288F
:1019600001D00020A8633800C0B2BDE8F28F2DE995
:10197000FE4F0400256800212000FFF7B4FA06009E
:101980003000C0B2002802D03000C0B2CEE02878CB
:10199000042847D12869FFF791FD824600212000E5
:1019A000FFF741FF0600C0B2002838D16869243033
:1019B000FEF7FCFB514689B28842EFD1686990F886
:1019C0002300070040208046002081463800C0B236
:1019D00000281BD018F01F0F01D118F10208686908
:1019E0004044FEF7E3FB80B202F006F9009028695C
:1019F00030F8190002F000F9009989B2814205D14E
:101A00007F1E18F1020819F10109DFE73800C0B2A2
:101A10000028C3D1286930F819000028BED1300051
:101A2000C0B283E0FF27BA46D0465FF0FF39C4F862
:101A30004C90A16B2800FEF77FFD06003000C0B27D
:101A4000002871D1E06B007883465846C0B2002868
:101A500002D10420060067E0E06BC07A10F03F007E
:101A60008DF804009DF80400A0715846C0B2E52826
:101A700007D09DF80400000707D59DF804000F2843
:101A800003D0B846C4F84C9045E09DF804000F28F8
:101A900025D194F84B0040063DD45FEA4B6007D552
:101AA000E06B407B82461BF0BF0BD846206BE064A6
:101AB00058464146C0B2C9B288420ED15046E16B89
:101AC000497BC0B2884208D1E16B2869FFF78DFBE2
:101AD000002802D0B8F101081DE0B8461BE04046DE
:101AE000C0B2002808D150460090E06BFFF7BCFC64
:101AF0000099C9B2814217D094F84B00C00707D4AF
:101B00000B2214F14001E06BFEF7F6FB00280BD02E
:101B1000B846C4F84C9000212000FFF750FA0600A8
:101B20003000C0B2002884D03000C0B2BDE8FE8FC3
:101B30002DE9F84F98B005002E6895F84B0010F08D
:101B4000A00F01D0062020E10027306930F81700EF
:101B5000002801D07F1CF8E73078042872D117F1F3
:101B60000E010F20B1FBF0F919F1020949462800D6
:101B7000FFF7C5FA80464046C0B2002802D0404672
:101B8000C0B202E1296BB9F101027FF01F0000FB36
:101B90000211E964A86800284ED0E87940074BD5C7
:101BA000D5E904017289B3895A4300238018594149
:101BB000C5E904012800FEF7ACFF82465046C0B2DA
:101BC000002802D05046C0B2DFE05FF0FF32696B00
:101BD0002800FEF7BDFF80464046C0B2002802D074
:101BE0004046C0B2D1E0290004A8FFF770FD82464C
:101BF0005046C0B2002802D05046C0B2C5E0D5E978
:101C0000042370693830FEF735FBD5E90423706989
:101C10002830FEF72FFBE97951F00101706980F857
:101C2000211004A8FFF774FD80464046C0B200288A
:101C300002D04046C0B2A8E031697069FFF7A7FD45
:101C40000020A2E00C2215F140016846FEF73FFBA0
:101C5000E84698F80B00C00726D5402085F84B00D1
:101C600001200400642C10D223003269694615F16A
:101C70004000FFF79FFB2800FFF779FE82465046A1
:101C8000C0B2002801D1641CECE7642C01D107200C
:101C90007BE05046C0B2042802D05046C0B274E087
:101CA00098F80B0085F84B0098F80B00800707D5D3
:101CB00017F10C000D21B0FBF1F818F1010801E05B
:101CC0005FF0010841462800FFF719FA81464846AF
:101CD000C0B2002837D1B8F10108B8F1000F32D0F6
:101CE000296B7FF01F0000FB08112800FFF7FBF8AD
:101CF00081464846C0B2002825D115F14000FFF7C3
:101D0000B3FB8346A96B3000FEF716FC81464846BC
:101D1000C0B2002817D15B46DBB24246D2B2E96BB3
:101D20003069FFF7FFFA0120F07000212800FFF76B
:101D300046F981464846C0B2002804D1B8F10108EE
:101D4000B8F1000FDED14846C0B200281BD1A96B04
:101D50003000FEF7F1FB81464846C0B2002812D1A0
:101D600020220021E86BFEF7C0FA0B2215F140019A
:101D7000E86BFEF7ACFA95F84B1011F01801E86B20
:101D800001730120F0704846C0B219B0BDE8F08F71
:101D90002DE9F84F81460C00D9F800600020A076AC
:101DA000D9F83800002800F0AD803078042804D13C
:101DB00021007069FFF7A4FBA4E0D9F84C0010F1F2
:101DC000010F2CD000208246D346306930F81A002B
:101DD0001AF1010AADF8000080B200281BD00021E2
:101DE000BDF8000001F0D8FEADF80000BDF800001D
:101DF000002802D1002083460DE0BBF1FF0F02D383
:101E00000020834607E0BDF8001004EB0B0081764C
:101E10001BF1010BD9E7002104EB0B0081760027B1
:101E2000B84604EB0800807EADF80200B8F10B0F55
:101E300040D2D9F83C0010F80800050018F101085C
:101E40002800C0B22028F1D02800C0B2052801D156
:101E5000E5200500B8F1090F0CD1BDF802000028FB
:101E600003D12E2104EB070081762E2104EB07001D
:101E700041737F1C04EB07004573BDF80200002886
:101E800016D12800C0B241280FDB2800C0B25B2861
:101E90000BDAB8F1090F01D3102100E00821D9F8BD
:101EA0003C00007B084200D0203504EB070085761B
:101EB0007F1CBBE7BDF8020000280AD1002004EB1C
:101EC00007018876D9F83C00007B002801D100206A
:101ED0000700002004EB07014873D9F83C00C07AE2
:101EE0002073D9F83C001C30FEF767F90021C4E9E3
:101EF0000001D9F83C001630FEF75FF9608101005F
:101F0000090C2181BDE8F18F2DE9F34F81B00298D2
:101F1000076801980068D0F810800024A24617F8DE
:101F20000A601AF1010A300080B2202837DB300045
:101F300080B22F2803D0300080B25C280BD117F874
:101F40000A002F2803D017F80A005C2802D11AF1E2
:101F5000010AF4E723E0FF2C01D306200FE106F08D
:101F6000FF060121300080B201F016FE05002800B6
:101F700080B2002801D1062001E1280080B280282B
:101F800009DA290089B2DFF87C09FEF7C7F90028D1
:101F900001D00620F3E028F81450641CBFE707EBDB
:101FA0000A0102980160300080B2202802DA5FF056
:101FB000040901E05FF00009002C0ED008EB44009A
:101FC00030F8020C0600300080B2202803D0300028
:101FD00080B22E2801D1641EEEE7002028F81400FC
:101FE000002C01D10620CAE00B22202101984030AC
:101FF000FEF77BF9002538F81500202803D038F8C3
:1020000015002E2801D16D1CF5E7002D01D059F0E7
:102010000309002C07D008EB440030F8020C2E28EE
:1020200001D0641EF5E75FF0000BDA465FFA8AFA2A
:102030000820009038F8150006006D1C300080B2B2
:10204000002869D0300080B2202805D0300080B24E
:102050002E2804D1A54202D059F00309EAE70098DE
:10206000824501D2A54213D100980B2802D159F024
:10207000030951E0A54201D059F00309AC424BD30A
:102080002500082082460B2000905FEA8B0BD1E7E9
:10209000300080B2802811DB0021300080B201F0D6
:1020A0007BFD0600300080B2002805D0DFF858081C
:1020B000B6B2304410F8806C59F00209300080B29A
:1020C000002807D0310089B2DFF84008FEF726F972
:1020D000002804D05F20060059F0030915E0300005
:1020E00080B2412806DB300080B25B2802DA5BF068
:1020F000020B0AE0300080B2612806DB300080B2BB
:102100007B2802DA5BF0010B203E0198504480F8F6
:1021100040601AF1010A8DE7019890F84000E52827
:1021200003D10521019880F840100098082801D1BA
:102130005FEA8B0B5846C0B210F00C000C2805D09B
:102140005846C0B210F00300032801D159F002092B
:102150005FEA89700FD45846C0B210F0030001281E
:1021600001D159F010095846C0B210F00C000428F3
:1021700001D159F00809019880F84B900020BDE882
:10218000FE8F2DE9F3418046464637680198007876
:102190002F2803D0019800785C2803D10198401CB7
:1021A0000190F3E70020B0600020F0610198007812
:1021B000202808D2802088F84B0000214046FEF7F6
:1021C00092FE040054E001A94046FFF79DFE040082
:1021D0002000C0B200284BD14046FFF7C8FB0400E6
:1021E00098F84B0005002000C0B2002808D020005D
:1021F000C0B2042803D1680701D40520040037E0E9
:10220000680735D4B079C00602D4052004002FE059
:10221000387804281DD1B0683062D6E90401000A7C
:102220000002F17908437062D8F84C00B062786916
:102230003430FDF7C2FFB060786990F8210010F0EB
:102240000200F07178693830FDF7C3FFC6E9040178
:10225000B9E7D8F83000BA89B0FBF2F102FB1100FF
:10226000384410F13C013800FEF796FFB060AAE751
:102270002000C0B2BDE8F68110B402005FF0FF306C
:10228000116800291CD011680B001978202904D38B
:1022900019783A2901D05B1CF7E719783A290DD152
:1022A000146821783039641C0A2906D29C4204D172
:1022B000002902D108005B1C136001E00021080026
:1022C00010BC704738B504000D000020E0705FF0CE
:1022D000FF30A06329002000FEF72EF9002801D06E
:1022E000042037E004F23A20FDF760FF4AF655215A
:1022F000884201D003202DE094F83C00E92807D063
:1023000094F83C00EB2819D194F83E00902815D1A0
:1023100014F17200FDF751FF20F07F40DFF8F01557
:10232000884201D1002015E014F18E00FDF745FF31
:10233000DFF8E015884201D100200BE00B22DFF826
:10234000D81514F13C00FDF7D7FF002801D101207A
:1023500000E0022032BD2DE9F34F8BB016000021C2
:102360000C9801600B98FFF787FF059005980028EF
:1023700001D50B206DE2DFF8A405059950F8214046
:10238000002C01D10C2064E20C98046016F0FE06CB
:102390008DF80160207800280FD0607801F068FA8D
:1023A0000500E80709D49DF80100002803D068075C
:1023B00001D50A204DE200204BE200202070059854
:1023C0006070607801F064FA8DF800009DF80000FC
:1023D000C00701D503203CE29DF80100002805D08C
:1023E0009DF80000400701D50A2032E214F10C02EA
:1023F0000221607801F0A0FA002801D0012028E233
:10240000A08941F20101884208DAA089B0F5007F75
:1024100004DBA089A189491E084201D0012018E2ED
:102420005FF0000841462000FFF74CFF070038002E
:10243000C0B2022834D10025042D13D22801204433
:1024400010F5FD70069006980079002804D00698D3
:102450000830FDF7B2FE00E0002007A941F8250092
:102460006D1CE9E75FF00009B9F1000F01D0B9F187
:10247000010907A850F829008046B8F1000F04D0E0
:1024800041462000FFF71EFF00E003200700380050
:10249000C0B2022804DB19F10109B9F1040FE8D335
:1024A0003800C0B2042801D10120D2E13800C0B206
:1024B000022801DB0D20CCE13800C0B2012840F039
:1024C000A9800B26402E07D204EB060090F83C00B2
:1024D000002801D1761CF5E7402E01D20D20B8E18D
:1024E00014F1A400FDF762FEB0F5807F01D00D204D
:1024F000AFE1012594F9A81015FA01F1A0898142F4
:1025000001D00D20A5E114F18400FDF762FE4246E2
:10251000002310EB020A51EB030B002001218B4535
:1025200004D301D8824501D30D2092E114F190002B
:10253000FDF743FE606294F8AA00A070A07801281D
:1025400001D00D2085E194F9A9008540658160895D
:10255000002801D10D207CE114F19800FDF72DFE3B
:102560000500DFF8BC03854201D30D2071E1A81CF2
:102570002062C4F8288014F19400FDF71EFE10EBD1
:102580000800606314F18C00FDF717FE10EB0800E3
:10259000E062606B0021628902FB05F20023801873
:1025A00059418B4504D801D3824501D20D2050E119
:1025B00014F19C00FDF701FE2063216B2000FEF763
:1025C0002BF801002000FDF7B7FF002801D0012003
:1025D0003FE15FF00009A08981450FD204EB0900BB
:1025E00090F83C00812806D104EB09005030FDF73B
:1025F000E4FD022802D019F12009ECE7A089814509
:1026000001D10D2025E15FF0FF30E061E069A061BC
:1026100004260FE114F14700FDF7C8FDA18980B23F
:10262000884201D00D2014E114F15200FDF7BEFDE7
:102630000500002D04D114F16000FDF7BEFD05007A
:10264000656294F84C00A070A078012804D0A078AE
:10265000022801D00D20FCE0A0784543049594F8B1
:10266000490060816089002804D060896189491E21
:10267000084201D00D20ECE014F14D00FDF796FD6D
:1026800020812089A189202291FBF2F290FBF2F1B6
:1026900002FB1100002801D00D20DAE014F14F00F8
:1026A000FDF784FD01900198002804D114F15C002D
:1026B000FDF783FD019014F14A00FDF777FDADF8B9
:1026C0000200BDF80200002801D10D20C1E0BDF8D4
:1026D0000210049810FA81F1A089202290FBF2F0F8
:1026E000228992FBF0F041180391019903988142ED
:1026F00001D20D20ADE001990398091A6089B1FB60
:10270000F0F5002D01D10D20A3E003264FF6F67061
:10271000854201D20220060040F6F670854201D2C1
:1027200001200600A81C2062C4F82880BDF8020021
:1027300018FA80F0E062039810EB08006063300044
:10274000C0B2032815D114F16600FDF72FFD002853
:1027500001D00D207DE02089002801D00D2078E0F7
:1027600014F16800FDF729FD2063206A80000290C3
:102770001AE02089002801D10D206AE0E16A04985E
:10278000411821633000C0B2022803D1206A400002
:10279000029009E0216A0320414394F8200010F0E0
:1027A000010010EB510002900298A189491E0818FF
:1027B000A189B0FBF1F1606A884201D20D2048E0A6
:1027C0005FF0FF30E061E069A0618020207130009F
:1027D000C0B203282ED114F16C00FDF7E7FC0128EC
:1027E00028D118F101012000FDF7A6FE002821D113
:1027F0000020207104F23A20FDF7D8FC4AF655215A
:10280000884217D114F13C00FDF7D7FC45498842B6
:1028100010D114F50870FDF7D0FC4349884209D166
:1028200014F50970FDF7C9FCE06114F50A70FDF7B5
:10283000C4FCA06126703D490888401C08800888B7
:10284000E0803B4820613B4860612000FDF737FE97
:1028500000200DB0BDE8F08F70B504000D00092612
:10286000002C13D02068002810D0206800780028A1
:102870000CD0A0882168C988884207D12068407898
:1028800000F0F6FFC00701D4002006003000C0B2FF
:10289000002801D1206800E0002028603000C0B28C
:1028A00070BDF3B581B01500029800906846FFF73F
:1028B000E3FC0600002E01D50B2021E0174F57F84E
:1028C0002640002C04D02000FDF7F9FD00202070E8
:1028D0000198002802D0002101980170019847F862
:1028E00026000198002803D02800C0B2012801D09A
:1028F000002005E0002201A902A8FFF72CFDC0B2CC
:10290000FEBD0000EC4002081C060208A4420208BA
:102910004641540046415433F8400208F8FA00207A
:10292000FEFFFF7F5252614172724161D4FB002071
:1029300058E30020A0DC00202DE9F24F98B00400FD
:10294000002C01D10920E7E112F03F02160032000D
:10295000D2B201A918A8FFF7FEFC05002800C0B2FA
:10296000002840F0D18101980490189904A8FFF73D
:1029700008FC05002800C0B2002810D19DF85B00BB
:10298000000602D50620050009E016F0FE0F01D072
:10299000012100E0002104A8FDF7CAFC050016F0A3
:1029A0001C0F00F0C8802800C0B2002810D02800FA
:1029B000C0B2042809D1FDF7F6FC002803D004A812
:1029C000FFF7B6F800E01220050056F008060BE00D
:1029D0009DF8160010F0110F02D00720050003E04B
:1029E000700701D5082005002800C0B2002840F07B
:1029F000B580300740F1B28001F072F9834601984A
:102A0000007804285ED10198206001984069343034
:102A1000FDF7D3FBA060019840693830FDF7D9FB82
:102A2000C4E904010198406990F8210010F0020007
:102A3000E0710020E0615946019840690830FDF7D7
:102A40000DFC0020019949690875594601984069B3
:102A50000C30FDF703FC00200199496948752020DE
:102A60000199496908710021019840693430FDF7E6
:102A7000F5FB00220023019840693830FDF7FAFB8E
:102A800000220023019840692830FDF7F3FB012064
:102A90000199496981F8210004A8FEF739FE050073
:102AA0002800C0B2002859D1A068002856D00022C2
:102AB000A1682000FEF76FF80500A068401E01998C
:102AC00088614BE0594613980E30FDF7C7FB594615
:102AD00013981630FDF7C2FB20201399C872139982
:102AE0000198FEF759FB0290002213990198FEF716
:102AF00067FB002113981C30FDF7B0FB0120019902
:102B0000C8700298002829D00198806B8346002263
:102B1000029904A8FEF73FF805002800C0B200287B
:102B20001CD159460198FDF707FD05000298401E8B
:102B30000199886112E02800C0B200280ED19DF8EA
:102B40001600C00602D50420050007E0B00705D531
:102B50009DF81600C00701D5072005002800C0B267
:102B6000002817D1300701D556F040060198806B38
:102B7000A0641398E06416F0FE0F01D0012100E07C
:102B8000002104A8FDF71FFCE062E06A002801D1E3
:102B9000022005002800C0B2002840F0B58001984E
:102BA0000078042820D106982062DDE90801000A97
:102BB00000029DF81710084360621798A062019800
:102BC00040693430FDF7F9FAA06001984069383067
:102BD000FDF7FFFAC4E904010198406990F821006B
:102BE00010F00200E0710BE013990198FEF7D4FA9F
:102BF000A06013981C30FDF7E0FA0021C4E904013D
:102C000000202065019820600198C088A08084F889
:102C10003060002084F83100002060640020002132
:102C2000C4E90E014FF48052002114F15400FDF765
:102C30005CFBB00668D5D4E90401002901D1002865
:102C400062D0D4E90401C4E90E01019841890198D8
:102C5000808941438A46A0680700D4E90401804680
:102C600089462800C0B200281BD1504600214945A2
:102C700017D801D3404514D239002000FDF7DAFC03
:102C80000700022F01D20220050017F1010F01D128
:102C90000120050050460021B8EB000879EB01093E
:102CA000DFE727642800C0B200282DD140464946FE
:102CB000019A9289002300F057FE002B01D1002ACF
:102CC00022D039000198FDF7A7FC0390002802D11B
:102CD0000220050018E00398009040464946019AFA
:102CE0009289002300F040FE0200009812186264EE
:102CF0000123626C14F154010198407800F0E8FD62
:102D0000002801D0012005002800C0B2002801D011
:102D1000002020602800C0B219B0BDE8F08F2DE976
:102D2000FB4F84B007001400059D00210698016048
:102D300069463800FFF790FD83465846C0B2002828
:102D400005D197F831008346C0B2002802D058461A
:102D5000C0B20FE197F83000C00701D4072009E1A5
:102D6000D7E90401D7E90E23801A9941CDE9020180
:102D7000DDE90223200000218B4205D801D38242E5
:102D800002D2DDE902010400002C00F0F280D7E954
:102D90000E01009A9289002300F0E6FD002B40F01E
:102DA000B880002A40F0B580D7E90E01009A9289D8
:102DB000002300F0D9FD00994989491E084001907F
:102DC0000198002829D1D7E90E01002904D1002853
:102DD00002D1B86882460EE0386D002806D0D7E9E7
:102DE0000E233800FEF754F8824604E0396C3800B0
:102DF000FDF720FC8246BAF1020F04D2022087F8C8
:102E000031000220B6E01AF1010F04D1012087F849
:102E100031000120AEE0C7F840A0396C0098FDF702
:102E2000FBFB0100002904D1022087F831000220B9
:102E3000A0E0DDF8048018EB010800988089B4FB5D
:102E4000F0F08146B9F1000F36D000984189019821
:102E500019EB0000814204D2009841890198091AB7
:102E600089464B46424629000098407800F030FDE4
:102E7000002804D0012087F8310001207AE097F87B
:102E80003000000612D5786CB0EB080048450DD232
:102E90000098828917F154017B6CB3EB080300980A
:102EA0008089434305EB0300FDF711FA0098808900
:102EB00009FB00F006004CE0786C404527D097F8FD
:102EC0003000000614D501237A6C17F154010098E4
:102ED000407800F017FD002804D0012087F8310069
:102EE000012047E097F8300010F07F0087F83000AD
:102EF0000123424617F154010098407800F0E8FCA5
:102F0000002804D0012087F83100012032E0C7F802
:102F10004480D7E90E0100998989009A9289121A92
:102F2000B0FBF1F001FB00210E00B44200D22600FC
:102F300032001600D7E90E01009A9289002300F0B2
:102F400013FD07EB020010F1540132002800FDF7D9
:102F5000BEF93544D7E90E2330000021101859413D
:102F6000C7E90E0106980168711806980160A41B54
:102F70000AE7002007B0BDE8F08F2DE9FB4F82B0D3
:102F800007001400039D0021049801606946380081
:102F9000FFF762FC83465846C0B2002805D197F877
:102FA00031008346C0B2002802D05846C0B245E185
:102FB00097F83000800701D407203FE1009800789F
:102FC00004280DD0D7E90E010200A218D7E90E019E
:102FD000824205D25FF0FF32D7E90E01121A1400C7
:102FE000002C00F02481D7E90E01009A9289002379
:102FF00000F0BAFC002B40F0D380002A40F0D080D3
:10300000D7E90E01009A9289002300F0ADFC0099E7
:103010004989491E08400190019800283AD1D7E912
:103020000E0100290CD100280AD1B8688046B8F1F9
:10303000000F14D100213800FDF74AFE80460EE053
:10304000386D002806D0D7E90E233800FDF720FFA1
:10305000804604E0396C3800FDF73AFE8046B8F14E
:10306000000F00F0E480B8F1010F04D1022087F8CE
:1030700031000220E2E018F1010F04D1012087F8AD
:1030800031000120DAE0C7F84080B868002801D19B
:10309000C7F8088097F83000000614D501237A6C31
:1030A00017F154010098407800F02CFC002804D05F
:1030B000012087F831000120C0E097F8300010F0BF
:1030C0007F0087F83000396C0098FDF7A5FA010001
:1030D000002904D1022087F831000220AEE0DDF89B
:1030E000049019EB010900988089B4FBF0F0824646
:1030F000BAF1000F37D00098418901981AEB00000F
:10310000814204D2009841890198091A8A4653469F
:103110004A4629000098407800F0F4FB002804D0CB
:10312000012087F83100012088E0786CB0EB0900BD
:10313000504512D200988289796CB1EB0901009850
:1031400080894143294417F15400FDF7C0F897F8EE
:10315000300010F07F0087F83000009880890AFB6B
:1031600000F0060043E0786C484517D0D7E90E011F
:10317000D7E90423994211D801D390420ED20123FA
:103180004A4617F154010098407800F0A1FB00284E
:1031900004D0012087F8310001204FE0C7F84490A7
:1031A000D7E90E0100998989009A9289121AB0FB19
:1031B000F1F001FB00210E00B44200D226003200E3
:1031C00029000D001600D7E90E01009A928900230C
:1031D00000F0CAFB07EB0200543032002900FDF773
:1031E00076F897F8300050F0800087F830003544CA
:1031F000D7E90E233000002110185941C7E90E010C
:10320000D7E90401D7E90E23994205D801D39042AA
:1032100002D2D7E90E0101E0D7E90401C7E90401B0
:1032200004980168711804980160A41BD8E697F807
:10323000300050F0400087F83000002005B0BDE8B5
:10324000F08FF8B596B0070069463800FFF704FB29
:1032500006003000C0B2002840F0B78097F8300078
:10326000400640F1B28097F83000000611D50123E6
:103270007A6C17F154010098407800F043FB002865
:1032800001D00120A3E097F8300010F07F0087F80C
:10329000300000F025FD040000980078042862D179
:1032A0003800FDF736FC06003000C0B2002806D119
:1032B0005FF0FF32396C3800FDF74AFC0600300041
:1032C000C0B2002840F08180390002A8FEF7FFF963
:1032D00006003000C0B2002877D10098406900791C
:1032E00050F02000009949690871F87950F0010008
:1032F0000099496981F82100B96800984069343023
:10330000FCF7ACFFD7E90423009840693830FCF79C
:10331000B1FFD7E90423009840692830FCF7AAFFE1
:103320002100009840690C30FCF798FF00200099BC
:10333000496948750021009840691030FCF78EFFFC
:1033400002A8FEF7E5F906003000C0B200283CD123
:103350000098FDF712F9060097F8300010F0BF0052
:1033600087F8300031E0B96C0098FDF7E5F8060009
:103370003000C0B2002828D1F86C0500E87A50F07F
:103380002000E872BA6829003868FDF719FFD7E90C
:103390000423110015F11C00FCF760FF210015F15A
:1033A0001600FCF75BFF002115F11200FCF74FFF40
:1033B00001210098C1700098FDF7DFF8060097F82A
:1033C000300010F0BF0087F830003000C0B217B0F6
:1033D000F0BD38B504002000FFF733FF05002800DA
:1033E000C0B2002812D169462000FFF735FA050067
:1033F0002800C0B2002809D1E06AFDF73AF80500BC
:103400002800C0B2002801D1002020602800C0B2EE
:1034100032BD31B594B00C000022694614A8FEF705
:103420009AFF05002800C0B2002815D114996846FB
:10343000FEF7A7FE05002800C0B200280CD19DF8B9
:103440004B00000602D50620050005E0002C03D045
:1034500021006846FEF79CFC2800C0B215B030BDC4
:103460002DE9F74F8EB0002269460EA8FEF773FFD4
:1034700081464846C0B2002840F0AF8000991098BD
:1034800001600098006A801E0099C969884204D3CF
:103490000098C1690F9801609FE000200700009824
:1034A000007801281FD1022004000098029021001A
:1034B00002A8FDF7BFF80190019810F1010F02D1A9
:1034C000012081467FE00198012802D10220814637
:1034D00079E00198002800D17F1C641C0098006AE4
:1034E0008442E4D36FE000980078042834D1009837
:1034F000006A801E04000098406B82460020050090
:10350000002D09D151460098FDF716F81AF1010A6D
:103510008146C0B2002856D10820060000982844F1
:1035200090F83C008346002E0CD0002C0AD05FEAB5
:10353000CB7000D47F1C5FFA8BFB5FEA5B0B761EBF
:10354000641EF0E76D1C00988189B5FBF1F001FB6A
:103550001055002CD4D136E00098006A0400009881
:10356000C06A82460020050000208046002D10D150
:1035700051460098FCF7E0FF81461AF1010A4846DF
:10358000C0B200281FD100983C3080460098808946
:10359000050000980078022809D14046FCF706FE95
:1035A000002800D17F1C18F10208AD1E08E040463B
:1035B000FCF703FE000100D17F1C18F104082D1F49
:1035C000641E002CD2D10F9807600098C761009844
:1035D000017951F00101009801714846C0B211B063
:1035E000BDE8F08F2DE9F14797B00222694617A890
:1035F000FEF7B1FE0700009802903800C0B2002824
:1036000040F0F280179902A8FEF7BBFD07003800D2
:10361000C0B2002801D1082007003800C0B2042839
:1036200040F0E280002102A8FDF752FB050000985F
:1036300040890099898948430021CDE9060100208D
:103640000700002D01D107200700012D01D1022024
:10365000070015F1010F01D1012007003800C0B2A9
:10366000002803D10098FCF73AFF070000F038FB70
:1036700081463800C0B200285CD129000098FCF7D0
:10368000CBFF060000983C308046009882890021DC
:103690004046FCF72AFE0098007804282FD00B2221
:1036A00020214046FCF721FE2E2088F80000102043
:1036B00088F80B00494618F11600FCF7CFFD2A00E8
:1036C00041460098FDF77CFD2022414618F120007C
:1036D000FCF7FDFD2E2088F8210004988246009812
:1036E0000078032805D10098006B824501D10020A5
:1036F0008246524618F120010098FDF761FD0098BE
:1037000040890400002C15D000988663761C0121A6
:103710000098C1700098FCF7E2FE07003800C0B2C4
:10372000002807D10098828900214046FCF7DDFD82
:10373000641EE7E73800C0B2002803D102A8FEF7F4
:10374000F7F907003800C0B2002848D10098007887
:10375000042829D14946009840690C30FCF77EFDC9
:103760002900009840693430FCF778FDDDE9060156
:103770000100009840693830FCF770FDDDE9060172
:103780000100009840692830FCF768FD032000998B
:10379000496981F82100102000994969087102A83F
:1037A000FDF7B6FF070011E011988046494618F171
:1037B0001600FCF753FD2A0041460098FDF700FD76
:1037C000102088F80B0001210098C1703800C0B2A9
:1037D000002809D10098FCF7D0FE070004E0002281
:1037E000290002A8FDF7D7F93800C0B218B0BDE82B
:1037F000F087F0B40246106895681318506803EB20
:103800005004C00748BF4D44A3422DD013F8016BAC
:1038100016F0030004BF13F8010BC01C31090F2977
:1038200007D113F8011B0F3103E013F8017B05F8F2
:10383000017B401EF9D10029E6D013F8010BC6F335
:103840008107032F08BF13F8017B00EB07204042DC
:1038500028440026B71E8F421EBF10F8017B05F8D2
:10386000017B761CF6D1CFE7F0BC02F10C0070476B
:1038700010B504003B492000C0B20844007A220081
:10388000D2B201EB8201496849688847C0B210BDD5
:1038900070B504000025334E2000C0B2305C002813
:1038A00013D12000C0B23044007A2100C9B206EB27
:1038B000810149680968884705002800C0B20028CE
:1038C00003D101212000C0B231542800C0B270BD24
:1038D000F8B504000D0016001F00DFF888C03B009B
:1038E000320029002000C0B26044007AA6465FFA88
:1038F0008EFE0CEB8E0CDCF804C0DCF808C0E04750
:10390000C0B2F2BDF8B504000D0016001F00DFF8CC
:1039100054C03B00320029002000C0B26044007A4D
:10392000A6465FFA8EFE0CEB8E0CDCF804C0DCF8C9
:103930000CC0E047C0B2F2BDF8B504000D0016009F
:10394000084B32002900C9B22000C0B21844007AE6
:103950002700FFB203EB87035B681B699847C0B27F
:10396000F2BD000068FA0020BBBBE1B1B2F5803FB8
:1039700080F07E80022A1ED98C46B1FBF2F102FB58
:1039800011C31B0443EA1043B3FBF2FC02FB1C33DC
:1039900080B240EA0343B3FBF2F002FB103240EA8C
:1039A0000C4000237047022A05D98446B0FBF2F090
:1039B00002FB10C270474AB105D100F0010249086C
:1039C0005FEA3000704700220023704700F08AB998
:1039D0000B000200002100207047904271EB030CA5
:1039E000F6D3B3F5803F2FD2F0B5B3FA83F7B1FA2F
:1039F00081F4A7F10F0E3D1B5340CEF1200602FAD1
:103A00000EF2F3415340B5F10F0746D80F3C2C445A
:103A10004140C4F12006A040F1414140B1FBF3F622
:103A200003FB1611A2FB0645001BA94102D2761E1C
:103A30008018594180EA010221FA0EF362FA0EF26F
:103A400000215A403046F0BD30B4B1FBF3FC03FB1B
:103A50001C11A2FB0C45001BA94103D2ACF1010CC7
:103A60008018594130BC02460B4660460021704721
:103A7000B2F1807F65D3F0B5B2FA82F7B1FA81F482
:103A8000C7F10F063D1B22FA06F307F1110EF241B2
:103A900020355A40B5F10F07B8D94140C4F120068E
:103AA000A040F1414140B1FBF3FC03FB1C11A2FB20
:103AB0000C45001BA94103D2BCF1010C80185941EF
:103AC0000F2F12D30F3FC90341EA5041B1FBF3F668
:103AD00003FB1611A2FB0645D4EBC030A94102D26C
:103AE000761E8018594146EACC3C07B34140C7F1E5
:103AF0002006B840F1414140B1FBF3F603FB16113B
:103B0000A2FB0645001BA94102D2761E801859412E
:103B100080EA010221FA0EF3C7F1200462FA0EF2E4
:103B20000CFA07F05A402CFA04F13043F0BD80EA59
:103B3000010221FA0EF3002162FA0EF260465A40A9
:103B4000F0BD8C46B1FBF2F102FB11C31B0243EA4C
:103B50001063B3FBF2FC02FB1C331B024CEA002097
:103B600043EA1063B3FBF2FC02FB1C331B024CEA7A
:103B7000002043EA1063B3FBF2FC02FB1C331B0280
:103B80004CEA002043EA1063B3FBF2FC02FB1C3258
:103B90004CEA00200023704730B40200100080B2CD
:103BA000802801DA100024E000290FD0100080B234
:103BB000B0F5807F01DB00201BE03F4B100080B29E
:103BC00003EB4000B0F58070008812E00020030095
:103BD0009BB2802B0ADA1300374D0400A4B235F8EB
:103BE00014409BB2A34201D0401CF0E7803000F0AB
:103BF000FF0080B230BC704770B4010089B2B1F5EB
:103C0000805F01DA2D4D00E02D4D29880A00AD1CA2
:103C1000110089B2002905D006001100B6B289B2A0
:103C20008E4200D245E02E88AD1C310089B2090ACF
:103C30000C0006F0FF063300010089B21E00B6B288
:103C400016FA82F6B1422BDA210089B200290CD093
:103C5000022916D010D3042917D014D3062918D05E
:103C600015D3082919D016D319E080B2110089B2F2
:103C7000401A35F8100012E0811A11F00101401AC3
:103C80000DE010380BE0203809E0303807E01A3832
:103C900005E0083003E0503801E0B0F5E35008E0FB
:103CA000210089B20029B0D1190089B205EB410584
:103CB000ABE780B270BC70471C020208B8FE010876
:103CC000DC03020880B50349034800F03FF80349CC
:103CD000087001BDF4FA0020983C02081CFC00208A
:103CE00000207047704703681AB95A1E02600846E0
:103CF0007047197811B94FF0FF307047591C0160B7
:103D000018787047F0B4040001200025144E737A2F
:103D1000002B18D10027737AF754737A06EB8303CC
:103D20005C60737A33441A72777A7B1C73723D003D
:103D300015F130030B703A234B702F238B70002347
:103D4000CB7000231800C0B2F0BC704738B5050036
:103D50000C00002221002800FFF7D4FF32BD000034
:103D600068FA00202DE9F24F84B00700002F08D137
:103D7000DFF8B83C8322DFF8F818DFF8F80801F024
:103D80001BFEDFF8F4B8BBF87A00401CABF87A00F1
:103D9000DFF89C8C7868C8F800007889142805DA68
:103DA000BBF88200401CABF8820030E3DFF8CC980F
:103DB000D9F80010D9F8140001F012FE002805D13E
:103DC00099F8140010F0F000E02805D1BBF8880045
:103DD000401CABF888001AE3D8F80000808901F095
:103DE00027FE80B2000B80008DF80D009DF80D00BD
:103DF000142805DB39899DF80D0080B2814205D277
:103E0000BBF88200401CABF8820000E3DFF870686A
:103E10009DF80D0014383080DFF8684800202060DD
:103E200079899DF80D0080B2814209D33188DFF88D
:103E3000580801809DF80D10380002F02CF84BE076
:103E40003868002808D1DFF8E43BC222DFF83C18CC
:103E5000DFF8200801F0B0FD1421380002F01BF853
:103E6000DFF824187889088036880888361A098887
:103E7000380002F010F838684189300080B2814281
:103E800005D2BBF88200401CABF88200BFE2386864
:103E900040682060310089B2386801F0FCFF388941
:103EA000801B38817889002808D0DFF8803BDF222A
:103EB000DFF8DC17DFF8BC0701F07EFD38893968D0
:103EC0000989884208D0DFF8643BE022DFF8C41794
:103ED000DFF8A00701F070FDD8F80000008801F0BD
:103EE000A7FDD8F800100880D8F80000408801F03D
:103EF0009FFDD8F800104880D8F80010486801F0FD
:103F00009FFDD8F800104860DFF8801C0860D8F8E2
:103F10000010886801F094FDD8F800108860DFF880
:103F200078170860D8F80000C08901F081FDD8F842
:103F30000010C881D8F80000808901F079FD10F0E8
:103F40003F00DFF858170870DFF854A73889AAF83F
:103F50000000DFF84807007810F0030F0FD0BAF820
:103F60000000401CAAF80000BAF80010388981420D
:103F700005D2BBF88200401CABF8820047E2002665
:103F8000DFF820070468002C76D0207D002808D1B7
:103F9000DFF8983AFB22DFF81017DFF8D80601F0B7
:103FA0000BFD207D0A2808D1DFF8803AFC22DFF8DB
:103FB000FC16DFF8C00601F0FFFC207D012808D1C7
:103FC000DFF8683AFD22DFF8E816DFF8A80601F00E
:103FD000F3FC207A00280AD0207AD9F8041091F84E
:103FE0003010491CC9B2884201D0260042E0208B23
:103FF000D8F80010098888423BD1E08AD8F8001030
:104000004988884235D16168D9F81000814230D1A1
:104010002168D9F8140081422BD1E068A04209D16F
:10402000DFF8083A40F20D12DFF88816DFF8440690
:1040300001F0C2FC002E09D0E068F060DFF86406F1
:104040000068E060DFF85C06046004E0BBF88E0006
:10405000401CABF88E00E068A04209D1DFF8CC39F3
:1040600040F21512DFF85016DFF8080601F0A4FC44
:1040700002E02600E46886E7002C7DD1DFF8080C1A
:1040800000680400002C37D0207D0A2809D0DFF812
:104090009C3940F21F12DFF8F41BDFF8D80501F05D
:1040A0008BFC207A002808D0207AD9F8041091F8E7
:1040B0003010491CC9B288421CD1208BD8F800109E
:1040C0000988884216D1E08AD8F8001049888842C9
:1040D00010D16168D9F8100081420BD12168D9F85C
:1040E0001400814206D1200000F074FA380001F07B
:1040F0002BFF94E1E468C5E700200600DFF8901B81
:1041000008680500002D21D0287A00280AD0287AD6
:10411000D9F8042092F83020521CD2B2904201D03B
:104120002E0011E0E88AD8F80020528890420AD187
:104130002A68D9F81400824208D0002D02D02868DD
:10414000002800D102E02E00ED68DBE7002D13D03F
:10415000002E05D0E868F0600868E8600D6004E0B3
:10416000BBF88E00401CABF88E00280000F084F9EC
:10417000380001F0E9FE52E1002C00F01A81DFF86E
:10418000BC9B0020C9F800003889A9F80800C9F8CC
:104190000470D8F80000C9F80C00DFF8A48B0020E8
:1041A000C8F800000021DFF8540C01700021DFF88E
:1041B000940B0180DFF8E4040078000703D5787BD6
:1041C00050F001007873A06F002818D0200002F092
:1041D000C3FF10F10D0F06D0A06F00280FD0BAF862
:1041E000000000280BD0608D002802D1200004F0D0
:1041F00079FFBBF87E00401CABF87E00C6E0DFF81C
:10420000000C0460200000F059FA8DF80C007FF0DB
:104210000C0B9DF90C00584500F0B880DFF8DC0B62
:104220000078000712D5D4F89000002805D07FF060
:104230000D012069D4F8902090472100DFF8640434
:1042400003F048FA200002F0D0F89FE000208DF83B
:104250000C00DFF8F0AABAF8000000281BD0BAF86A
:104260000000ADF80000D4F88000002809D0BDF8A7
:10427000002021002069D4F8803098478DF80C0088
:1042800002E000208DF80C009DF90C0058457DD00F
:104290000020AAF80000200000F0C4F8002875D122
:1042A000D8F8000000283AD0A06F002809D0DFF825
:1042B0007C374FF4F372DFF84C1BDFF8B80301F0E2
:1042C0007BFBA07EC00607D5D8F8000001F03CFEBD
:1042D000200002F0A3FA59E0D4F8840000280AD0A4
:1042E0000023D8F8002021002069D4F884C0E047DA
:1042F0008DF80C0008E00023D8F8002021000020F1
:1043000002F0DAFF8DF80C009DF90C0058453DD005
:104310009DF90C00002802D0D8F80000A067DFF853
:10432000DC0A0078800625D5A06F002806D0A06F93
:10433000417B51F02001A06F41731BE0208DB0F54F
:10434000066F02D0208D401C2085D4F88400002800
:1043500009D00023002221002069D4F884C0E0475E
:104360008DF80C0002E000208DF80C009DF90C0087
:1043700058450BD00021DFF8880A0160200000F0CA
:1043800051F8002802D1200004F0F6F90021DFF8EE
:10439000700A01600020C8F80000D9F80400002865
:1043A00034D0D9F8040001F0CFFD0020C9F8040092
:1043B0002CE0D8F80000808901F03AFB400722D4B5
:1043C000BBF88800401CABF88800BBF87E00401C9E
:1043D000ABF87E00D8F8000000880290D8F8000002
:1043E0004088019019F11000009019F11403DFF8D2
:1043F0009C070068BAF8001010FA81F2A64801681C
:10440000002004F021FE380001F09EFD07E0BBF81B
:104410007E00401CABF87E00380001F095FD05B031
:10442000BDE8F08F10B50400002C08D1DFF8FC3592
:1044300040F25A22DFF8D0198E4801F0BDFADFF8B9
:10444000BC090078C00615D5A07EC00609D4D4F8F2
:104450009000002805D07FF00E012069D4F890204C
:10446000904721008F4803F035F9200001F0BDFF8F
:10447000012000E0002010BD2DE9FE430400DFF81C
:104480001C8298F80000400700F1A280002C08D19F
:10449000DFF8983540F28122DFF87019754801F095
:1044A0008BFA98F80000C00619D57448DFF880151B
:1044B0000A681288029209684988019110F1100176
:1044C000009110F11403DFF8C406006874490988EC
:1044D000421871480168200004F0B6FD78E098F8B1
:1044E0000000800774D5607D02F0BAFF0500002D42
:1044F00012D16149B1F88400401CA1F88400A06980
:10450000002806D05FF0FF3200212069A369984798
:1045100001E07FF00F005BE05849486928600869B6
:104520006860E08AE882DFF80885D8F80000008833
:10453000288303202875DFF85496D9F80000401C22
:104540006862686AE862280003F02AF90600AE652E
:104550002E656E64EE65D9F80000401E686520691E
:104560002861EC67607A10F00C006872207A28727B
:104570004C490868E8600D6004F010FF0121DFF885
:1045800090080170280001F07BF9D8F80000C0897C
:10459000A5F86000B5F86000A5F86200281D04F0D9
:1045A000D7FF01002A1D688E03F00DF968861221DD
:1045B000280003F0F7FF0700380040B2002804D0BD
:1045C0000021280002F09AF802E0280004F0D4F854
:1045D000BDE8F7833EB50400304D2878400745D448
:1045E000002C08D1DFF8443440F2EE22DFF8241822
:1045F000204801F0E1F92878800725D5DFF88C15EF
:104600000A68606A121A002A25D40A68606A121AB7
:10461000208D121A012A1EDA1848DFF814241368B4
:104620001B88029312685288019210F110020092C6
:1046300010F1140308681A490988421816480168DD
:10464000200004F001FD11E02878C00703D5DFF851
:10465000C8070068206212480088002806D0608BD6
:1046600050F002006083200004F086F837BD00009F
:104670003037020844220208B4F30020F4F9002085
:10468000DEFB002090FB0020E0FB0020AC3F020896
:10469000A0410208502B020898FB002034FC0020A7
:1046A000E6FB002084FB00206C220208E81B0208C5
:1046B00094220208141C0208401C02082DE9FF4144
:1046C000050000270026002D09D1DFF860334FF4E4
:1046D0004772DFF84817DFF8480701F06DF9DFF897
:1046E0006C8A98F80000400744D5287D022808D13C
:1046F000DFF830070168286D81421BD101200700D7
:1047000018E0DFF8881408686A6A904202D1012034
:1047100007000FE00A68686A121A002A0AD40968BA
:10472000686A091A288D091A012903DA688B50F082
:10473000020068833800C0B2002819D0287D002804
:1047400008D1BA4B4FF44E72DFF8DC16DFF8D00612
:1047500001F032F9DFF8A416087850F0080008706C
:10476000698B4FF6FE70014069837FF00D0087E290
:10477000002085E298F8000080070BD5287D0228EC
:1047800008D0287D032805D0688B50F0020068838C
:10479000002075E2A87EC00603D4DFF87C0600681E
:1047A0002862002085F89B00002085F89A002800E8
:1047B00001F066F8287D022814D0C0F06082042839
:1047C00000F08281C0F0D680062800F0E181C0F0C0
:1047D0008A81082800F00B82C0F07681092800F059
:1047E00039824CE298F8000010F01200122840F0D4
:1047F0009980DFF830060268696C491C8A4240F0F3
:104800009180DFF888130A68521C6A626A6AEA6259
:104810000068686486480068C089A5F86000B5F83B
:104820006000A5F862000868401E686504202875CD
:10483000281D04F08DFE01002A1D688E02F0C3FFC2
:10484000688641F21D10698E4900814202D3698E4B
:10485000490001E041F21C116A8E92008A4203D2A3
:10486000688E80B2800009E0698E4900814203D3DE
:10487000688E80B2400001E041F21C10A5F84800AB
:10488000B5F86600002808D1684B4FF45B72DFF87A
:104890009C15DFF88C0501F08FF8B5F86600401E16
:1048A000A5F86600286F0400002C0FD1E86E040004
:1048B000002C08D15D4B4FF45D72DFF87415DFF802
:1048C000600501F079F82068E86601E02068286753
:1048D000200002F0A6FC286F002803D15FF0FF3013
:1048E000288604E000202886002085F84200D5F8BC
:1048F0008800002807D0002229002869D5F88830D0
:104900009847060001E0002006007FF00C0032000E
:10491000010052B28A4200F0B381688B50F002006D
:10492000688326E098F80000C00622D5DFF8040569
:104930003F490A681288029209684988019110F17A
:104940001001009110F1140390480068DFF8C01CBA
:1049500009884218DFF8CC040168280004F074FBD1
:1049600095F84200062804DA00202886280004F082
:10497000AFF984E198F80000C00640F19780DFF8B5
:10498000A4140A68686C121A521E002A74D40A68A9
:10499000286D121A012A6FDA04202875E86F0028A2
:1049A00003D17FF0050006001BE0E86F8069002856
:1049B00008D11E4B4FF46A72DFF87C14DFF86004F4
:1049C00000F0FAFFE86F8069002807D00022290074
:1049D0002869EB6F9B699847060002E07FF00F00A3
:1049E0000600300040B200280BD07FF00C083100E8
:1049F000404649B2814202D0280001F00FFF4046F4
:104A00003EE1280000F01CFADFF83813088800287F
:104A100002D00888401E088041F21D10698E4900AE
:104A2000814207D3698E490006E000BF9009020861
:104A30008CFB002041F21C116A8E92008A4203D244
:104A4000688E80B2800009E0698E4900814203D3FC
:104A5000688E80B2400001E041F21C10A5F84800C9
:104A6000DFF89803007880062DD5688B50F002009F
:104A700068830720287526E0DFF8B803DFF8942B59
:104A800013681B88029312685288019210F1100279
:104A9000009210F114033D480068DFF8742B12886F
:104AA00082180968280004F0CFFA0CE098F800009A
:104AB000800708D535480168686A401E814202D1E6
:104AC000280004F021F9DAE0280000F0B9F9DFF855
:104AD0002C030078800605D5688B50F002006883AF
:104AE00007202875CBE0280000F0AAF9C348007819
:104AF00080063BD598F80000C00630D5DFF82403C7
:104B00000168286D81422AD1E86E002827D1688B80
:104B100050F002006883280002F098FDC748016841
:104B2000A94203D10168C96801600AE00068002851
:104B300007D0C168A94202D1E968C16001E0C0683C
:104B4000F5E70020E8600121B14801700A202875CE
:104B50004D490868E8600D6004F020FC14E0688BA3
:104B600050F002006883082028750DE098F80000D6
:104B7000C00609D5AB480168286D814204D1E86EB2
:104B8000002801D10620287579E000BF94FB0020A1
:104B9000280000F055F999480078800626D5688BE2
:104BA00050F002006883280002F050FDA34801681D
:104BB000A94203D10168C96801600AE000680028C1
:104BC00007D0C168A94202D1E968C16001E0C068AC
:104BD000F5E70020E86001218D4801700A20287562
:104BE00029490868E8600D6004F0D8FB47E0280018
:104BF00000F026F998F80000C0062AD58948016817
:104C0000286D814225D1E86E002822D1280002F0CB
:104C10001DFD8A480168A94203D10168C968016085
:104C20000AE00068002807D0C168A94202D1E968FB
:104C3000C16001E0C068F5E70020E8600120744928
:104C400008700A20287510480168E960056004F0C2
:104C5000A5FB14E0280000F0F3F898F80000C00667
:104C60000CD570480168286D814207D1E86E002894
:104C700004D16249087850F010000870FFE7002066
:104C800004B0BDE8F081000088FB0020481902084C
:104C900080FB002070B505000C00002D08D1DFF866
:104CA0009C3C40F21F42DFF8D41B5D4800F084FEBC
:104CB000E868808900F0BCFEC00705D5200002F03E
:104CC000A5FA0020040036E0002C1FD0E0684168FF
:104CD000DFF8780C026828891018411A2089091A0F
:104CE000002913D4E068808900F0A2FEC00707D530
:104CF000012000F09DFEE96889890843E968888100
:104D000026002468300002F08CFADDE7002C12D077
:104D1000E1684868DFF8341C0B682A899A18101A71
:104D2000012808DBE06842680868121A2A8129898C
:104D3000686801F002F82C6070BD000034FA0020B1
:104D40009CFB0020E4FB00202DE9F04781460C008D
:104D500016001D00002C4DD0E168486800F070FE80
:104D60008246E068808900F063FE10F0030F01D0F6
:104D7000012100E0002120891AEB000009182948D0
:104D80000068091A012935DA27002468786801F0DB
:104D900052F98046B9F86610404680B2814208D286
:104DA000DFF8983B40F25742DFF8A41B1C4800F0A4
:104DB00003FEB9F86600B0EB0800A9F86600DFF85A
:104DC000942B1188388941181180380002F029FA93
:104DD000B9F866000028BDD0002C0AD1002D08D1FA
:104DE000DFF8583B40F26242DFF86C1B0C4800F0E1
:104DF000E3FDAFE72000BDE8F087000035FC0020B0
:104E0000A0FB002024320208BC220208702B0208FA
:104E100031FC0020902B020878FB00204032020871
:104E20004422020898FB0020B02B020848370208F1
:104E3000343C0208F4F90020D02B020884FB002047
:104E40002DE9FE4F060000200190002E09D1DFF869
:104E5000EC3A40F27B42DFF8041BDFF8040B00F071
:104E6000ABFD307D042809DADFF8D03A40F27C420D
:104E7000DFF8F01ADFF8E80A00F09EFDB34800788A
:104E8000C00640F1A881B6F86010B06D40180290DD
:104E9000DFF8B81A726D0868121A002A18D4726DF9
:104EA0000868824206D1B26DDFF8BC0A0068121AA7
:104EB000002A0DD4B06DDFF8B02A126890421DD1DF
:104EC000B6F86000DFF84C271268D289904215D2FC
:104ED000DFF840070068C089A6F86000B6F86220D5
:104EE000B6F86000824203D2B6F86000A6F862000D
:104EF00008687065DFF8700A0068B065DFF8684A16
:104F00002168706C091A012949DADFF80407008862
:104F100000283CD1B16DB6F86000091802988142B2
:104F200035D1B6F93000002831D4716C2068814247
:104F30002DD10120019096F8431096F84300401CB3
:104F4000C0B2814204D296F84300401C86F8430068
:104F500096F84300042813DBB6F84810708E411809
:104F6000B6F8480089B2814206D3B6F84810708E70
:104F70004118A6F8481003E04FF6FF70A6F8480065
:104F800096F84300032802DB300003F009FF019884
:104F9000002840F0EF80002086F84300EAE0216816
:104FA000706C091A491E002900F1E1802168306DFA
:104FB000091A012980F2DB80B07E40070BD5718B86
:104FC0004FF6FB7001407183B6F84A00A6F848001E
:104FD0000020A6F86A00002086F84200B6F93C10CE
:104FE000C910B6F93E000818A6F840002568706C94
:104FF0002D1A002086F8430020687064307D042854
:1050000062DBB6F84810B6F84A00814229D2708BAC
:10501000000501D5012000E0022029000300DBB2D9
:10502000728E13FB02F289B292B2914201D2290030
:1050300004E00200D2B2718E12FB01F1B6F84820F2
:105040008A18B6F8483092B29A4205D3B6F848208A
:105050008A18A6F8482003E04FF6FF72A6F8482009
:1050600032E0B6F86A106918B6F86A0089B281426F
:1050700005D3B6F86A002818A6F86A0003E04FF6D0
:10508000FF70A6F86A00B6F86A10B6F848008142C8
:105090001AD3B6F86A10B6F84800091AA6F86A10CA
:1050A000B6F84810708E4118B6F8480089B28142AF
:1050B00006D3B6F84810708E4118A6F8481003E0E1
:1050C0004FF6FF70A6F84800F36EDFF8A028316FA6
:1050D0003000FFF739FE3067336FDFF89428F16E48
:1050E0003000FFF731FEF066306F002803D15FF02B
:1050F000FF30308601E00020308600203077F06EEF
:10510000002802D10020A6F86800B6F86410DFF885
:10511000440800884118A6F86410708B000529D552
:10512000306F002814D1F06E002808D0F06EC168EE
:10513000486800F085FCF16C081A01281ADA718BB6
:105140004FF2FF700140718314E000BF34FC002077
:10515000306FC168486800F073FCF16C081A0128D0
:1051600008DA718B4FF2FF700140718302E030006A
:1051700003F0B8FF706B00282DD0B16B2068091ABE
:10518000002928D5DFF8EC070168706B091A09B20D
:10519000B6F93C00B1EBE001B08F0818B087080009
:1051A00000B2002801D509B2494209B2B6F93E0061
:1051B000B1EBA001ADF80010F18FBDF8000041186F
:1051C000F187B6F93C10C910B6F93E000818A6F8E8
:1051D000400000207063DFF83884B8F80000002831
:1051E00000F01B83307D072880F21783DFF85C779F
:1051F000716A3868091A491E00295ED4716A3868D4
:10520000091AB8F80000091A491C012955DADFF813
:1052100068476568D6F824A03868BAEB000A606869
:10522000002809D1DFF8143740F29452DFF84C1708
:10523000DFF82C0700F0C0FB4FF6FF70824509D362
:10524000DFF8F83640F29552DFF83417DFF8100730
:1052500000F0B2FBD34660680189584680B28142B3
:1052600009D2DFF8D83640F29752DFF81817DFF886
:10527000F00600F0A1FB2089B0EB0B0020816068F4
:10528000B0F80890B9EB0B096889594689B2884291
:1052900008D26889BBEB000BA5F808900020688154
:1052A0002D68F1E7594689B2280000F0F4FD706AD4
:1052B0003860E0683968416008E03968706A091A46
:1052C000002903D5708B50F0020070833968706A32
:1052D000091A002900F19D823968706A091A308D17
:1052E000091A491C012980F29482716A3868814246
:1052F00040F0A481DFF88056E868808900F098FBD0
:1053000010F0030F01D0012100E0002128890918C5
:10531000A8F80010318DB8F80000814246D2E86844
:10532000808900F085FBC0070FD5E868808900F010
:105330007FFB10F03E0000F07BFBE9688A894CF2AD
:10534000FF010A401043E9688881308D2881E868B0
:10535000808900F06DFB800702D52889401E2881D6
:105360002989686800F0E9FCE868808900F060FB42
:1053700010F0030F01D0012100E000212889091855
:10538000A8F800103968B8F8000011FA80F0726AC5
:10539000318D5118884209D0DFF8A03540F2CC5247
:1053A000DFF8E415DFF8B80500F006FB706F0028A1
:1053B00000F08980E868808900F03AFBC0070BD5CF
:1053C000706F002800F07F80746F706F00687067E6
:1053D000200001F026FFF3E7746F002C33D0E06863
:1053E00041683A68B8F8000012FA80F0411A208942
:1053F000091A002927D4E068808900F019FBC0074A
:105400001BD5E868808900F013FB800715D40120C4
:1054100000F00EFBE96889890843E9688881E8683B
:10542000808900F005FB10F0030F01D0012100E09E
:10543000002128890918A8F80010A14624684846C8
:1054400001F0EFFEC9E7002C3CD0E16848683968FC
:10545000B8F8002011FA82F1081A012832DBE0685E
:1054600041683868091A2981E868808900F0E0FA03
:10547000800702D52889401E28812989686800F0A4
:105480005CFCE868808900F0D3FA10F0030F01D0CB
:10549000012000E0002029894018A8F80000E168F8
:1054A00048683968B8F8002011FA82F1814209D0C1
:1054B000DFF8883440F2FD52DFF8D014DFF8A004A2
:1054C00000F07AFA74673868B8F8001010FA81F0C2
:1054D0007062318DB8F80000814209D2DFF85C3487
:1054E00040F20762DFF8A814DFF8740400F064FAF1
:1054F000318DB8F80000091A3185300001F09DFAAD
:1055000068680089002805D06968DFF888040160B0
:1055100000206860E868808900F08AFAC00705D535
:10552000DFF87404017851F020010170706F0028D9
:1055300072D0706FC1684868716A88426CD1746FAC
:10554000706FC16848683860E068808900F070FA60
:1055500010F0030F01D0012000E00020716A2289C1
:10556000891840187062E068808900F061FA10F0D4
:10557000030F01D0012200E00022308D2189511853
:10558000884209D2DFF8B43340F22C62DFF80C1401
:10559000DFF8CC0300F010FAE068808900F048FAE8
:1055A00010F0030F01D0012200E00022318D20898C
:1055B000091A8A1A3285300001F03FFA60680089C2
:1055C00000280DD0DFF8CC231068002804D06168D3
:1055D000106800F04EFD01E060681060002060601F
:1055E000E068808900F024FAC0070AD5DFF8A81324
:1055F000087850F020000870307D042801D1072081
:10560000307520687067200001F00BFE8EE700BF48
:10561000E6FB00208CFB0020B07EC00709D5718B13
:105620004FF6FE7001407183708B50F00200708362
:1056300003E0708B50F00100708300E1706F002870
:1056400005D1DFF8340301F00FFE7067DDE00024C0
:10565000756F002D00F0D980E9684868396881428B
:1056600014D1C5482989028991420ED201F0FCFD6E
:105670000700002F08D0002C01D0276000E07767DA
:1056800029003800FFF706FBBFE0BEE0002C11D177
:10569000E96848683968081A002838D5B64801F022
:1056A000E3FD0700002F04D0776729003800FFF7DB
:1056B000F1FAAAE0E16848683968081A401E002833
:1056C00025D4E96848683968081A401C01281EDAA0
:1056D000A94801F0C9FD8046B8F1000F16D0E16875
:1056E0004868218941183868091A012908DBE168EE
:1056F00048683968081A20812189606800F01DFB1C
:10570000C4F8008029004046FFF7C4FA7DE02C0071
:105710002868002877D1E96848683968081A01289C
:1057200071DBE868808900F083F9C0076DD4924886
:1057300001F09AFD28602868002863D0E96848686D
:10574000298941183868091A012908DBE96848687D
:105750003968081A28812989686800F0EEFAB8F8D3
:105760000010386810FA81F1706A091A308D091A30
:10577000012947DB2868C068808900F059F9C00713
:1057800012D52868C068808900F052F910F03E00F8
:1057900000F04EF92968C9688A894CF2FF010A4075
:1057A00010432968C9688881716A308D411838684A
:1057B000091A28680181286801892868406800F072
:1057C000BCFA2868C068808900F032F910F0030F35
:1057D00001D0012000E00020296809894018A8F8BC
:1057E00000003868B8F8001010FA81F0716A328D44
:1057F0008918884206D0514B40F2F96262495848F4
:1058000000F0DAF801E02D6823E7300003F06AFCCD
:1058100015E0300003F066FC11E04C4A1168706A34
:10582000091A002907D41168706A091A308D091AFB
:10583000491C012903DB708B50F002007083BDE826
:10584000F78F10B4564A11881088401C1080554AB2
:105850001068002805D0544C0800238880B2984274
:1058600005D252480068143089B2405C04E02088B8
:10587000081A1268C0B2105C10BC7047E42202081B
:105880002DE9F0470400002C06D12C4B40F27D722C
:105890004749334800F090F8464F388800284AD0EE
:1058A000DFF8FC900020A9F80000B9F80010388853
:1058B000814240D2FFF7C5FF80464046C0B2002873
:1058C00003D0022803D001D326E034E0EDE7FFF750
:1058D000B8FF042805D13988B9F80000801C81423E
:1058E00000DA28E0FFF7ADFF82465FEA0A2AFFF7F9
:1058F000A8FF50EA0A000600310089B240F21920E0
:10590000814203DA300080B2002802D14FF40670E1
:1059100000E030006086C8E7FFF793FF050028002D
:10592000C0B2022807DBB9F8000050FA85F0801EEB
:10593000A9F80000B9E7BDE8F08700009009020867
:105940001549087850F010000870704794FB00204B
:105950000C230208E4FB0020F02B02085C32020852
:10596000442202087832020898FB0020E442020830
:10597000EC42020878FB002034FA0020BC3F020809
:10598000CC3F0208DC3F020824130208B0100208D2
:10599000102C02089CFB002035FC00203423020858
:1059A000E2FB002090FB0020E0FB00208CFB0020AD
:1059B00094320208DEFB00200EB41EB5024605A894
:1059C00001900024009401AB0121044878440C307C
:1059D00004F005F803B010BC5DF810FB45DE0100D3
:1059E00030B402001300D043002801D0002A01D1B6
:1059F00001201BE091F82D00800701D4002015E064
:105A00004868824201D1002010E08D681D404C683A
:105A100088680440A54208D18C6832EA040488688A
:105A2000C043844201D1012000E0002030BC704717
:105A30000100080080B2000A50EA012080B27047DD
:105A40000100080210F47F0050EA01600A00120A07
:105A500012F47F42104350EA1160704710B50021E4
:105A6000DFF8AC080170DFF8AC080468002C08D03F
:105A7000606F002803D0200001F062FF01E0E468BD
:105A8000F4E710BD0121DFF888080170704770B499
:105A9000BDF90C50049C00260660416002814381E0
:105AA00005734473012686730026C67370BC704765
:105AB0002DE9F14F82B08B4616009DF8087030003A
:105AC00000B2012808D0412806D0B0F5C17F0CD023
:105AD000B0F5207F75D0C0E0320012B2594689B2CD
